{
  "_format": "hh-sol-artifact-1",
  "contractName": "CourseFactory",
  "sourceName": "contracts/CourseFactory.sol",
  "abi": [
    {
      "anonymous": false,
      "inputs": [
        {
          "indexed": true,
          "internalType": "address",
          "name": "previousOwner",
          "type": "address"
        },
        {
          "indexed": true,
          "internalType": "address",
          "name": "newOwner",
          "type": "address"
        }
      ],
      "name": "OwnershipTransferred",
      "type": "event"
    },
    {
      "inputs": [
        {
          "internalType": "uint256",
          "name": "",
          "type": "uint256"
        }
      ],
      "name": "courses",
      "outputs": [
        {
          "internalType": "contract Course",
          "name": "",
          "type": "address"
        }
      ],
      "stateMutability": "view",
      "type": "function"
    },
    {
      "inputs": [
        {
          "internalType": "string",
          "name": "_name",
          "type": "string"
        },
        {
          "internalType": "string",
          "name": "_symbol",
          "type": "string"
        },
        {
          "internalType": "uint256",
          "name": "_price",
          "type": "uint256"
        },
        {
          "internalType": "string",
          "name": "_baseTokenURI",
          "type": "string"
        },
        {
          "internalType": "bool",
          "name": "_isCrowdfund",
          "type": "bool"
        },
        {
          "internalType": "uint256",
          "name": "_crowdfundPeriod",
          "type": "uint256"
        },
        {
          "internalType": "uint256",
          "name": "_crowdfundGoalStudentCount",
          "type": "uint256"
        },
        {
          "internalType": "uint256",
          "name": "_refundPeriod",
          "type": "uint256"
        },
        {
          "internalType": "address[]",
          "name": "_tutors",
          "type": "address[]"
        },
        {
          "internalType": "uint256[]",
          "name": "_tutorsPercent",
          "type": "uint256[]"
        },
        {
          "internalType": "uint256",
          "name": "_QnABoardShare",
          "type": "uint256"
        }
      ],
      "name": "createCourse",
      "outputs": [
        {
          "internalType": "address",
          "name": "",
          "type": "address"
        }
      ],
      "stateMutability": "nonpayable",
      "type": "function"
    },
    {
      "inputs": [],
      "name": "getCourseCount",
      "outputs": [
        {
          "internalType": "uint256",
          "name": "",
          "type": "uint256"
        }
      ],
      "stateMutability": "view",
      "type": "function"
    },
    {
      "inputs": [],
      "name": "owner",
      "outputs": [
        {
          "internalType": "address",
          "name": "",
          "type": "address"
        }
      ],
      "stateMutability": "view",
      "type": "function"
    },
    {
      "inputs": [],
      "name": "renounceOwnership",
      "outputs": [],
      "stateMutability": "nonpayable",
      "type": "function"
    },
    {
      "inputs": [
        {
          "internalType": "address",
          "name": "newOwner",
          "type": "address"
        }
      ],
      "name": "transferOwnership",
      "outputs": [],
      "stateMutability": "nonpayable",
      "type": "function"
    },
    {
      "inputs": [],
      "name": "withdraw",
      "outputs": [],
      "stateMutability": "nonpayable",
      "type": "function"
    }
  ],
  "bytecode": "0x608060405234801561001057600080fd5b5061001a3361001f565b61006f565b600080546001600160a01b038381166001600160a01b0319831681178455604051919092169283917f8be0079c531659141344cd1fd0a4f28419497f9722a3daafe3b4186f6b6457e09190a35050565b613f348061007e6000396000f3fe60806040523480156200001157600080fd5b5060043610620000875760003560e01c806390a0f1b9116200006257806390a0f1b914620000cc57806396cfda0614620000e357806396f979d214620000f5578063f2fde38b146200010c57600080fd5b80633ccfd60b146200008c578063715018a614620000985780638da5cb5b14620000a2575b600080fd5b6200009662000123565b005b6200009662000179565b6000546001600160a01b03165b6040516001600160a01b0390911681526020015b60405180910390f35b620000af620000dd36600462000654565b620001b2565b600154604051908152602001620000c3565b620000af620001063660046200077b565b6200025d565b620000966200011d36600462000630565b62000288565b6000546001600160a01b03163314620001595760405162461bcd60e51b81526004016200015090620008f7565b60405180910390fd5b62000177620001706000546001600160a01b031690565b476200032a565b565b6000546001600160a01b03163314620001a65760405162461bcd60e51b81526004016200015090620008f7565b6200017760006200044e565b6000808c8c8c8c8c8c8c8c8c8c8c604051620001ce906200049e565b620001e49b9a999897969594939291906200081e565b604051809103906000f08015801562000201573d6000803e3d6000fd5b506001805480820182556000919091527fb10e2d527612073b26eecdfd717e6a320cf44b4afac2b0732d9fcbe2b7fa0cf60180546001600160a01b0319166001600160a01b0383161790559d9c50505050505050505050505050565b600181815481106200026e57600080fd5b6000918252602090912001546001600160a01b0316905081565b6000546001600160a01b03163314620002b55760405162461bcd60e51b81526004016200015090620008f7565b6001600160a01b0381166200031c5760405162461bcd60e51b815260206004820152602660248201527f4f776e61626c653a206e6577206f776e657220697320746865207a65726f206160448201526564647265737360d01b606482015260840162000150565b62000327816200044e565b50565b804710156200037c5760405162461bcd60e51b815260206004820152601d60248201527f416464726573733a20696e73756666696369656e742062616c616e6365000000604482015260640162000150565b6000826001600160a01b03168260405160006040518083038185875af1925050503d8060008114620003cb576040519150601f19603f3d011682016040523d82523d6000602084013e620003d0565b606091505b5050905080620004495760405162461bcd60e51b815260206004820152603a60248201527f416464726573733a20756e61626c6520746f2073656e642076616c75652c207260448201527f6563697069656e74206d61792068617665207265766572746564000000000000606482015260840162000150565b505050565b600080546001600160a01b038381166001600160a01b0319831681178455604051919092169283917f8be0079c531659141344cd1fd0a4f28419497f9722a3daafe3b4186f6b6457e09190a35050565b613561806200099e83390190565b80356001600160a01b0381168114620004c457600080fd5b919050565b600082601f830112620004da578081fd5b81356020620004f3620004ed8362000960565b6200092c565b80838252828201915082860187848660051b890101111562000513578586fd5b855b858110156200053c576200052982620004ac565b8452928401929084019060010162000515565b5090979650505050505050565b600082601f8301126200055a578081fd5b813560206200056d620004ed8362000960565b80838252828201915082860187848660051b89010111156200058d578586fd5b855b858110156200053c578135845292840192908401906001016200058f565b80358015158114620004c457600080fd5b600082601f830112620005cf578081fd5b813567ffffffffffffffff811115620005ec57620005ec62000987565b62000601601f8201601f19166020016200092c565b81815284602083860101111562000616578283fd5b816020850160208301379081016020019190915292915050565b60006020828403121562000642578081fd5b6200064d82620004ac565b9392505050565b60008060008060008060008060008060006101608c8e03121562000676578687fd5b67ffffffffffffffff808d3511156200068d578788fd5b6200069c8e8e358f01620005be565b9b508060208e01351115620006af578788fd5b620006c18e60208f01358f01620005be565b9a5060408d013599508060608e01351115620006db578788fd5b620006ed8e60608f01358f01620005be565b9850620006fd60808e01620005ad565b975060a08d0135965060c08d0135955060e08d01359450806101008e0135111562000726578384fd5b620007398e6101008f01358f01620004c9565b9350806101208e013511156200074d578283fd5b50620007618d6101208e01358e0162000549565b91506101408c013590509295989b509295989b9093969950565b6000602082840312156200078d578081fd5b5035919050565b6000815180845260208085019450808401835b83811015620007c557815187529582019590820190600101620007a7565b509495945050505050565b60008151808452815b81811015620007f757602081850181015186830182015201620007d9565b81811115620008095782602083870101525b50601f01601f19169290920160200192915050565b6000610160808352620008348184018f620007d0565b90506020838203818501526200084b828f620007d0565b91508c6040850152838203606085015262000867828d620007d0565b8b1515608086015260a085018b905260c085018a905260e085018990528481036101008601528751808252828901935090820190845b81811015620008c45784516001600160a01b0316835293830193918301916001016200089d565b5050848103610120860152620008db818862000794565b9350505050826101408301529c9b505050505050505050505050565b6020808252818101527f4f776e61626c653a2063616c6c6572206973206e6f7420746865206f776e6572604082015260600190565b604051601f8201601f1916810167ffffffffffffffff8111828210171562000958576200095862000987565b604052919050565b600067ffffffffffffffff8211156200097d576200097d62000987565b5060051b60200190565b634e487b7160e01b600052604160045260246000fdfe60806040523480156200001157600080fd5b5060405162003561380380620035618339810160408190526200003491620004ca565b8a518b908b906200004d906002906020850190620001ea565b50805162000063906003906020840190620001ea565b50506000805550620000753362000198565b81518351146200008457600080fd5b600a89905587516200009e9060099060208b0190620001ea565b50600d80548815801560ff1992831617909255601180549091169091179055600e849055600b86905560108590558251620000e190601290602086019062000279565b508151620000f7906013906020850190620002d1565b50600d5460ff1662000113576200010f84426200065f565b600f555b60198190556200012581605a6200067a565b601855604051309062000138906200030e565b6001600160a01b039091168152602001604051809103906000f08015801562000165573d6000803e3d6000fd5b50601480546001600160a01b0319166001600160a01b039290921691909117905550620006fd9950505050505050505050565b600880546001600160a01b038381166001600160a01b0319831681179093556040519116919082907f8be0079c531659141344cd1fd0a4f28419497f9722a3daafe3b4186f6b6457e090600090a35050565b828054620001f89062000694565b90600052602060002090601f0160209004810192826200021c576000855562000267565b82601f106200023757805160ff191683800117855562000267565b8280016001018555821562000267579182015b82811115620002675782518255916020019190600101906200024a565b50620002759291506200031c565b5090565b82805482825590600052602060002090810192821562000267579160200282015b828111156200026757825182546001600160a01b0319166001600160a01b039091161782556020909201916001909101906200029a565b828054828255906000526020600020908101928215620002675791602002820182811115620002675782518255916020019190600101906200024a565b610c9180620028d083390190565b5b808211156200027557600081556001016200031d565b600082601f83011262000344578081fd5b815160206200035d620003578362000639565b62000606565b80838252828201915082860187848660051b89010111156200037d578586fd5b855b85811015620003b25781516001600160a01b03811681146200039f578788fd5b845292840192908401906001016200037f565b5090979650505050505050565b600082601f830112620003d0578081fd5b81516020620003e3620003578362000639565b80838252828201915082860187848660051b890101111562000403578586fd5b855b85811015620003b25781518452928401929084019060010162000405565b805180151581146200043457600080fd5b919050565b600082601f8301126200044a578081fd5b81516001600160401b03811115620004665762000466620006e7565b60206200047c601f8301601f1916820162000606565b828152858284870101111562000490578384fd5b835b83811015620004af57858101830151828201840152820162000492565b83811115620004c057848385840101525b5095945050505050565b60008060008060008060008060008060006101608c8e031215620004ec578687fd5b8b516001600160401b0381111562000502578788fd5b620005108e828f0162000439565b60208e0151909c5090506001600160401b038111156200052e578788fd5b6200053c8e828f0162000439565b60408e015160608f0151919c509a5090506001600160401b0381111562000561578788fd5b6200056f8e828f0162000439565b9850506200058060808d0162000423565b965060a08c0151955060c08c0151945060e08c015193506101008c015160018060401b03811115620005b0578384fd5b620005be8e828f0162000333565b6101208e015190945090506001600160401b03811115620005dd578283fd5b620005eb8e828f01620003bf565b9250506101408c015190509295989b509295989b9093969950565b604051601f8201601f191681016001600160401b0381118282101715620006315762000631620006e7565b604052919050565b60006001600160401b03821115620006555762000655620006e7565b5060051b60200190565b60008219821115620006755762000675620006d1565b500190565b6000828210156200068f576200068f620006d1565b500390565b600181811c90821680620006a957607f821691505b60208210811415620006cb57634e487b7160e01b600052602260045260246000fd5b50919050565b634e487b7160e01b600052601160045260246000fd5b634e487b7160e01b600052604160045260246000fd5b6121c3806200070d6000396000f3fe60806040526004361061025b5760003560e01c8063715018a611610144578063a6a3b5b4116100b6578063c87b56dd1161007a578063c87b56dd146106a9578063d547cfb7146106c9578063e65f2a7e146106de578063e6a72acf146106e6578063e985e9c514610713578063f2fde38b1461075c57600080fd5b8063a6a3b5b41461060e578063ac193f2014610624578063b88d4fde14610643578063c23fcdef14610663578063c6d643511461069357600080fd5b80638d1426a2116101085780638d1426a2146105705780638da5cb5b1461059057806395d89b41146105ae5780639aeed9d5146105c3578063a035b1fe146105d8578063a22cb465146105ee57600080fd5b8063715018a6146104fa5780637310c9541461050f57806373fddd161461052f578063859e0015146105455780638c7e8b841461055a57600080fd5b806320472f90116101dd57806342842e0e116101a157806342842e0e14610445578063544ae7c71461046557806355f804b314610485578063590e1ae3146104a55780636352211e146104ba57806370a08231146104da57600080fd5b806320472f90146103c457806323b872dd146103e45780632d07953a1461040457806339215dfe1461041957806339bd6f691461042f57600080fd5b8063079b30dd11610224578063079b30dd1461030a578063081812fc14610324578063095ea7b31461035c57806318160ddd1461037e5780631b9dbe931461039757600080fd5b80628dd0da1461026057806301ffc9a71461028857806302fb0c5e146102b857806303ff20a1146102d257806306fdde03146102e8575b600080fd5b34801561026c57600080fd5b50610275600a81565b6040519081526020015b60405180910390f35b34801561029457600080fd5b506102a86102a3366004611ee5565b61077c565b604051901515815260200161027f565b3480156102c457600080fd5b506011546102a89060ff1681565b3480156102de57600080fd5b50610275600c5481565b3480156102f457600080fd5b506102fd6107ce565b60405161027f9190612013565b34801561031657600080fd5b50600d546102a89060ff1681565b34801561033057600080fd5b5061034461033f366004611f63565b610860565b6040516001600160a01b03909116815260200161027f565b34801561036857600080fd5b5061037c610377366004611ebc565b6108a4565b005b34801561038a57600080fd5b5060015460005403610275565b3480156103a357600080fd5b506102756103b2366004611d82565b60176020526000908152604090205481565b3480156103d057600080fd5b50601454610344906001600160a01b031681565b3480156103f057600080fd5b5061037c6103ff366004611dce565b610944565b34801561041057600080fd5b5061037c610adf565b34801561042557600080fd5b5061027560185481565b34801561043b57600080fd5b50610275600b5481565b34801561045157600080fd5b5061037c610460366004611dce565b610c37565b34801561047157600080fd5b5061037c610480366004611d82565b610c57565b34801561049157600080fd5b5061037c6104a0366004611f1d565b610ca6565b3480156104b157600080fd5b5061037c610d83565b3480156104c657600080fd5b506103446104d5366004611f63565b610f8a565b3480156104e657600080fd5b506102756104f5366004611d82565b610f95565b34801561050657600080fd5b5061037c610fe4565b34801561051b57600080fd5b5061034461052a366004611f63565b61101a565b34801561053b57600080fd5b50610275600f5481565b34801561055157600080fd5b5061037c611044565b34801561056657600080fd5b5061027560195481565b34801561057c57600080fd5b5061027561058b366004611f63565b611164565b34801561059c57600080fd5b506008546001600160a01b0316610344565b3480156105ba57600080fd5b506102fd611185565b3480156105cf57600080fd5b5061037c611194565b3480156105e457600080fd5b50610275600a5481565b3480156105fa57600080fd5b5061037c610609366004611e82565b6112db565b34801561061a57600080fd5b50610275600e5481565b34801561063057600080fd5b506011546102a890610100900460ff1681565b34801561064f57600080fd5b5061037c61065e366004611e09565b611371565b34801561066f57600080fd5b506102a861067e366004611f63565b60156020526000908152604090205460ff1681565b34801561069f57600080fd5b5061027560105481565b3480156106b557600080fd5b506102fd6106c4366004611f63565b6113bb565b3480156106d557600080fd5b506102fd611440565b61037c6114ce565b3480156106f257600080fd5b50610275610701366004611f63565b60166020526000908152604090205481565b34801561071f57600080fd5b506102a861072e366004611d9c565b6001600160a01b03918216600090815260076020908152604080832093909416825291909152205460ff1690565b34801561076857600080fd5b5061037c610777366004611d82565b6115c4565b60006301ffc9a760e01b6001600160e01b0319831614806107ad57506380ac58cd60e01b6001600160e01b03198316145b806107c85750635b5e139f60e01b6001600160e01b03198316145b92915050565b6060600280546107dd906120f5565b80601f0160208091040260200160405190810160405280929190818152602001828054610809906120f5565b80156108565780601f1061082b57610100808354040283529160200191610856565b820191906000526020600020905b81548152906001019060200180831161083957829003601f168201915b5050505050905090565b600061086b8261165c565b610888576040516333d1c03960e21b815260040160405180910390fd5b506000908152600660205260409020546001600160a01b031690565b60006108af82610f8a565b9050336001600160a01b038216146108e8576108cb813361072e565b6108e8576040516367d9dca160e11b815260040160405180910390fd5b60008281526006602052604080822080546001600160a01b0319166001600160a01b0387811691821790925591518593918516917f8c5be1e5ebec7d5bd14f71427d1e84f3dd0314c0f7b2291e5b200ac8c7c3b92591a4505050565b600061094f82611683565b9050836001600160a01b0316816001600160a01b0316146109825760405162a1148160e81b815260040160405180910390fd5b600082815260066020526040902080546109ae8187335b6001600160a01b039081169116811491141790565b6109d9576109bc863361072e565b6109d957604051632ce44b5f60e11b815260040160405180910390fd5b6001600160a01b038516610a0057604051633a954ecd60e21b815260040160405180910390fd5b8015610a0b57600082555b6001600160a01b038681166000908152600560205260408082208054600019019055918716808252919020805460010190554260a01b17600160e11b17600085815260046020526040902055600160e11b8316610a965760018401600081815260046020526040902054610a94576000548114610a945760008181526004602052604090208490555b505b83856001600160a01b0316876001600160a01b03167fddf252ad1be2c89b69c2b068fc378daa952ba7f163c4a11628f55a4df523b3ef60405160405180910390a4505050505050565b600f5442118015610af15750600f5415155b610b3b5760405162461bcd60e51b81526020600482015260166024820152752932b33ab732103832b934b7b2103737ba1037bb32b960511b60448201526064015b60405180910390fd5b4760005b601354811015610bed57610bdb60128281548110610b6d57634e487b7160e01b600052603260045260246000fd5b600091825260209091200154601380546001600160a01b039092169184908110610ba757634e487b7160e01b600052603260045260246000fd5b9060005260206000200154606460185486610bc29190612093565b610bcc9190612073565b610bd69190612093565b6116e4565b80610be581612130565b915050610b3f565b50601454601954610c19916001600160a01b031690606490610c0f9085612093565b610bd69190612073565b610c34610c2e6008546001600160a01b031690565b476116e4565b50565b610c5283838360405180602001604052806000815250611371565b505050565b600060166000610c6660005490565b8152602081019190915260400160002055610c8060005490565b610c8b90600161205b565b33600090815260176020526040902055610c348160016117fd565b6000805b601254811015610d1557336001600160a01b031660128281548110610cdf57634e487b7160e01b600052603260045260246000fd5b6000918252602090912001546001600160a01b03161415610d035760019150610d15565b80610d0d81612130565b915050610caa565b508080610d2c57506008546001600160a01b031633145b610d705760405162461bcd60e51b81526020600482015260156024820152742737ba1030903a3aba37b91037b91037bbb732b91760591b6044820152606401610b32565b8151610c52906009906020850190611c57565b600f5442111580610d945750600f54155b610dd95760405162461bcd60e51b81526020600482015260166024820152752932b33ab732103832b934b7b21034b99037bb32b91760511b6044820152606401610b32565b33600090815260176020526040902054610e225760405162461bcd60e51b815260206004820152600a602482015269125b9d985b1a5908125160b21b6044820152606401610b32565b33600090815260176020526040812054610e3e906001906120b2565b9050610e4981610f8a565b6001600160a01b0316336001600160a01b031614610e9b5760405162461bcd60e51b815260206004820152600f60248201526e2737ba103a37b5b2b71037bbb732b960891b6044820152606401610b32565b60008181526015602052604090205460ff1615610eed5760405162461bcd60e51b815260206004820152601060248201526f105b1c9958591e481c99599d5b99195960821b6044820152606401610b32565b60008181526016602052604090205480610f495760405162461bcd60e51b815260206004820152601960248201527f526566756e6420616d6f756e742063616e6e6f742062652030000000000000006044820152606401610b32565b6000828152601560205260409020805460ff19166001179055610f73610f6c3390565b3084610944565b610f7c82611817565b610f8633826116e4565b5050565b60006107c882611683565b60006001600160a01b038216610fbe576040516323d3ad8160e21b815260040160405180910390fd5b506001600160a01b031660009081526005602052604090205467ffffffffffffffff1690565b6008546001600160a01b0316331461100e5760405162461bcd60e51b8152600401610b3290612026565b6110186000611822565b565b6012818154811061102a57600080fd5b6000918252602090912001546001600160a01b0316905081565b60115460ff161561108b5760405162461bcd60e51b815260206004820152601160248201527021b7bab939b29034b99030b1ba34bb329760791b6044820152606401610b32565b600d5460ff166110dd5760405162461bcd60e51b815260206004820181905260248201527f5468697320636f75727365206973206e6f742063726f776466756e64696e672e6044820152606401610b32565b600c5442101561112f5760405162461bcd60e51b815260206004820152601960248201527f43726f776466756e6420706572696f64206e6f74206f766572000000000000006044820152606401610b32565b601054600154600054031061115d576011805460ff19166001179055600e54611158904261205b565b600f55565b6000600f55565b6013818154811061117457600080fd5b600091825260209091200154905081565b6060600380546107dd906120f5565b6008546001600160a01b031633146111be5760405162461bcd60e51b8152600401610b3290612026565b60115460ff16156112055760405162461bcd60e51b815260206004820152601160248201527021b7bab939b29034b99030b1ba34bb329760791b6044820152606401610b32565b600d5460ff166112575760405162461bcd60e51b815260206004820181905260248201527f5468697320636f75727365206973206e6f742063726f776466756e64696e672e6044820152606401610b32565b601154610100900460ff16156112ba5760405162461bcd60e51b815260206004820152602260248201527f5468652063726f776466756e642068617320616c726561647920737461727465604482015261321760f11b6064820152608401610b32565b600b546112c7904261205b565b600c556011805461ff001916610100179055565b6001600160a01b0382163314156113055760405163b06307db60e01b815260040160405180910390fd5b3360008181526007602090815260408083206001600160a01b03871680855290835292819020805460ff191686151590811790915590519081529192917f17307eab39ab6107e8899845ad3d59bd9653f200f220920489ca2b5937696c31910160405180910390a35050565b61137c848484610944565b6001600160a01b0383163b156113b55761139884848484611874565b6113b5576040516368d2bf6b60e11b815260040160405180910390fd5b50505050565b60606113c68261165c565b6113e357604051630a14c4b560e41b815260040160405180910390fd5b60006113ed61196c565b905080516000141561140e5760405180602001604052806000815250611439565b806114188461197b565b604051602001611429929190611fa7565b6040516020818303038152906040525b9392505050565b6009805461144d906120f5565b80601f0160208091040260200160405190810160405280929190818152602001828054611479906120f5565b80156114c65780601f1061149b576101008083540402835291602001916114c6565b820191906000526020600020905b8154815290600101906020018083116114a957829003601f168201915b505050505081565b336000908152601760205260409020541561151f5760405162461bcd60e51b8152602060048201526011602482015270105b1c9958591e481c1d5c98da185cd959607a1b6044820152606401610b32565b600a543410156115715760405162461bcd60e51b815260206004820152601b60248201527f4e6f7420656e6f7567682066756e6420746f206d696e74204e465400000000006044820152606401610b32565b600a546016600061158160005490565b815260208101919091526040016000205561159b60005490565b6115a690600161205b565b336000818152601760205260409020919091556110189060016117fd565b6008546001600160a01b031633146115ee5760405162461bcd60e51b8152600401610b3290612026565b6001600160a01b0381166116535760405162461bcd60e51b815260206004820152602660248201527f4f776e61626c653a206e6577206f776e657220697320746865207a65726f206160448201526564647265737360d01b6064820152608401610b32565b610c3481611822565b60008054821080156107c8575050600090815260046020526040902054600160e01b161590565b6000816000548110156116cb57600081815260046020526040902054600160e01b81166116c9575b806114395750600019016000818152600460205260409020546116ab565b505b604051636f96cda160e11b815260040160405180910390fd5b804710156117345760405162461bcd60e51b815260206004820152601d60248201527f416464726573733a20696e73756666696369656e742062616c616e63650000006044820152606401610b32565b6000826001600160a01b03168260405160006040518083038185875af1925050503d8060008114611781576040519150601f19603f3d011682016040523d82523d6000602084013e611786565b606091505b5050905080610c525760405162461bcd60e51b815260206004820152603a60248201527f416464726573733a20756e61626c6520746f2073656e642076616c75652c207260448201527f6563697069656e74206d617920686176652072657665727465640000000000006064820152608401610b32565b610f868282604051806020016040528060008152506119ca565b610c34816000611a37565b600880546001600160a01b038381166001600160a01b0319831681179093556040519116919082907f8be0079c531659141344cd1fd0a4f28419497f9722a3daafe3b4186f6b6457e090600090a35050565b604051630a85bd0160e11b81526000906001600160a01b0385169063150b7a02906118a9903390899088908890600401611fd6565b602060405180830381600087803b1580156118c357600080fd5b505af19250505080156118f3575060408051601f3d908101601f191682019092526118f091810190611f01565b60015b61194e573d808015611921576040519150601f19603f3d011682016040523d82523d6000602084013e611926565b606091505b508051611946576040516368d2bf6b60e11b815260040160405180910390fd5b805181602001fd5b6001600160e01b031916630a85bd0160e11b1490505b949350505050565b6060600980546107dd906120f5565b604080516080810191829052607f0190826030600a8206018353600a90045b80156119b857600183039250600a81066030018353600a900461199a565b50819003601f19909101908152919050565b6119d48383611b7a565b6001600160a01b0383163b15610c52576000548281035b6119fe6000868380600101945086611874565b611a1b576040516368d2bf6b60e11b815260040160405180910390fd5b8181106119eb578160005414611a3057600080fd5b5050505050565b6000611a4283611683565b905080600080611a6086600090815260066020526040902080549091565b915091508415611aa057611a75818433610999565b611aa057611a83833361072e565b611aa057604051632ce44b5f60e11b815260040160405180910390fd5b8015611aab57600082555b6001600160a01b038316600081815260056020526040902080546fffffffffffffffffffffffffffffffff0190554260a01b17600360e01b17600087815260046020526040902055600160e11b8416611b325760018601600081815260046020526040902054611b30576000548114611b305760008181526004602052604090208590555b505b60405186906000906001600160a01b038616907fddf252ad1be2c89b69c2b068fc378daa952ba7f163c4a11628f55a4df523b3ef908390a45050600180548101905550505050565b6000546001600160a01b038316611ba357604051622e076360e81b815260040160405180910390fd5b81611bc15760405163b562e8dd60e01b815260040160405180910390fd5b6001600160a01b038316600081815260056020526040902080546801000000000000000185020190554260a01b6001841460e11b1717600082815260046020526040902055808281015b6040516001830192906001600160a01b038716906000907fddf252ad1be2c89b69c2b068fc378daa952ba7f163c4a11628f55a4df523b3ef908290a4808210611c0b5760005550505050565b828054611c63906120f5565b90600052602060002090601f016020900481019282611c855760008555611ccb565b82601f10611c9e57805160ff1916838001178555611ccb565b82800160010185558215611ccb579182015b82811115611ccb578251825591602001919060010190611cb0565b50611cd7929150611cdb565b5090565b5b80821115611cd75760008155600101611cdc565b600067ffffffffffffffff80841115611d0b57611d0b612161565b604051601f8501601f19908116603f01168101908282118183101715611d3357611d33612161565b81604052809350858152868686011115611d4c57600080fd5b858560208301376000602087830101525050509392505050565b80356001600160a01b0381168114611d7d57600080fd5b919050565b600060208284031215611d93578081fd5b61143982611d66565b60008060408385031215611dae578081fd5b611db783611d66565b9150611dc560208401611d66565b90509250929050565b600080600060608486031215611de2578081fd5b611deb84611d66565b9250611df960208501611d66565b9150604084013590509250925092565b60008060008060808587031215611e1e578081fd5b611e2785611d66565b9350611e3560208601611d66565b925060408501359150606085013567ffffffffffffffff811115611e57578182fd5b8501601f81018713611e67578182fd5b611e7687823560208401611cf0565b91505092959194509250565b60008060408385031215611e94578182fd5b611e9d83611d66565b915060208301358015158114611eb1578182fd5b809150509250929050565b60008060408385031215611ece578182fd5b611ed783611d66565b946020939093013593505050565b600060208284031215611ef6578081fd5b813561143981612177565b600060208284031215611f12578081fd5b815161143981612177565b600060208284031215611f2e578081fd5b813567ffffffffffffffff811115611f44578182fd5b8201601f81018413611f54578182fd5b61196484823560208401611cf0565b600060208284031215611f74578081fd5b5035919050565b60008151808452611f938160208601602086016120c9565b601f01601f19169290920160200192915050565b60008351611fb98184602088016120c9565b835190830190611fcd8183602088016120c9565b01949350505050565b6001600160a01b038581168252841660208201526040810183905260806060820181905260009061200990830184611f7b565b9695505050505050565b6020815260006114396020830184611f7b565b6020808252818101527f4f776e61626c653a2063616c6c6572206973206e6f7420746865206f776e6572604082015260600190565b6000821982111561206e5761206e61214b565b500190565b60008261208e57634e487b7160e01b81526012600452602481fd5b500490565b60008160001904831182151516156120ad576120ad61214b565b500290565b6000828210156120c4576120c461214b565b500390565b60005b838110156120e45781810151838201526020016120cc565b838111156113b55750506000910152565b600181811c9082168061210957607f821691505b6020821081141561212a57634e487b7160e01b600052602260045260246000fd5b50919050565b60006000198214156121445761214461214b565b5060010190565b634e487b7160e01b600052601160045260246000fd5b634e487b7160e01b600052604160045260246000fd5b6001600160e01b031981168114610c3457600080fdfea264697066735822122063ae1229a933421572d04eef9c9251f1a26f3f7c7689183576ef589b100f7a5564736f6c63430008040033608060405234801561001057600080fd5b50604051610c91380380610c9183398101604081905261002f916100ad565b6100383361005d565b600280546001600160a01b0319166001600160a01b03929092169190911790556100db565b600080546001600160a01b038381166001600160a01b0319831681178455604051919092169283917f8be0079c531659141344cd1fd0a4f28419497f9722a3daafe3b4186f6b6457e09190a35050565b6000602082840312156100be578081fd5b81516001600160a01b03811681146100d4578182fd5b9392505050565b610ba7806100ea6000396000f3fe6080604052600436106100ab5760003560e01c8063715018a611610064578063715018a61461027257806376c7d020146102875780638da5cb5b146102ab578063cf2b277d146102c9578063de0490ef14610309578063f2fde38b1461031c57600080fd5b806331b1b9781461014f578063351e1bd0146101995780633e90aa30146101bb578063442a9591146101fa5780635109a5f5146102325780636357b28e1461025257600080fd5b3661014a5760035447906000600a82116100c557816100c8565b600a5b905060006100d7600184610b12565b90505b6100e48284610b12565b8110610144576101326003828154811061010e57634e487b7160e01b600052603260045260246000fd5b6000918252602090912001546001600160a01b031661012d8487610af2565b61033c565b8061013c81610b29565b9150506100da565b50505050005b600080fd5b34801561015b57600080fd5b5061016f61016a366004610aa7565b61045f565b604080516001600160a01b0390941684526020840192909252908201526060015b60405180910390f35b3480156101a557600080fd5b506101b96101b4366004610ae0565b61049c565b005b3480156101c757600080fd5b506101db6101d6366004610ae0565b610672565b604080516001600160a01b039093168352602083019190915201610190565b34801561020657600080fd5b5061021a610215366004610aa7565b6106b8565b6040516001600160a01b039091168152602001610190565b34801561023e57600080fd5b506101b961024d366004610abf565b6106e2565b34801561025e57600080fd5b5060025461021a906001600160a01b031681565b34801561027e57600080fd5b506101b96107ef565b34801561029357600080fd5b5061029d60015481565b604051908152602001610190565b3480156102b757600080fd5b506000546001600160a01b031661021a565b3480156102d557600080fd5b506101db6102e4366004610aa7565b600560205260009081526040902080546001909101546001600160a01b039091169082565b6101b9610317366004610abf565b610855565b34801561032857600080fd5b506101b9610337366004610a79565b61095e565b804710156103915760405162461bcd60e51b815260206004820152601d60248201527f416464726573733a20696e73756666696369656e742062616c616e636500000060448201526064015b60405180910390fd5b6000826001600160a01b03168260405160006040518083038185875af1925050503d80600081146103de576040519150601f19603f3d011682016040523d82523d6000602084013e6103e3565b606091505b505090508061045a5760405162461bcd60e51b815260206004820152603a60248201527f416464726573733a20756e61626c6520746f2073656e642076616c75652c207260448201527f6563697069656e74206d617920686176652072657665727465640000000000006064820152608401610388565b505050565b6006818154811061046f57600080fd5b60009182526020909120600390910201805460018201546002909201546001600160a01b03909116925083565b600682815481106104bd57634e487b7160e01b600052603260045260246000fd5b60009182526020909120600390910201546001600160a01b0316336001600160a01b03161461055e5760405162461bcd60e51b815260206004820152604160248201527f416e737765722063616e206f6e6c79206265206163636570746564206173206360448201527f6f727265637420627920746865207175657374696f6e20696e69746961746f726064820152601760f91b608482015260a401610388565b600082815260046020526040902080548290811061058c57634e487b7160e01b600052603260045260246000fd5b60009182526020808320858452600590915260409092206002909102909101805482546001600160a01b0319166001600160a01b039091169081178355600191820154919092015560068054610613929190859081106105fc57634e487b7160e01b600052603260045260246000fd5b90600052602060002090600302016001015461033c565b506000908152600560205260408120546003805460018101825592527fc2575a0e9e593c00f959f8c92f12db2869c3395a3b0502d05e2516446f71f85b90910180546001600160a01b0319166001600160a01b03909216919091179055565b6004602052816000526040600020818154811061068e57600080fd5b6000918252602090912060029091020180546001909101546001600160a01b039091169250905082565b600381815481106106c857600080fd5b6000918252602090912001546001600160a01b0316905081565b6006828154811061070357634e487b7160e01b600052603260045260246000fd5b60009182526020909120600390910201546001600160a01b0316336001600160a01b031614156107915760405162461bcd60e51b815260206004820152603360248201527f416e7377657265722063616e6e6f74206265207468652073616d65206173207460448201527234329038bab2b9ba34b7b7103837b9ba32b91760691b6064820152608401610388565b6000918252600460209081526040808420815180830190925233825281830193845280546001808201835591865292909420905160029092020180546001600160a01b0319166001600160a01b039092169190911781559051910155565b6000546001600160a01b031633146108495760405162461bcd60e51b815260206004820181905260248201527f4f776e61626c653a2063616c6c6572206973206e6f7420746865206f776e65726044820152606401610388565b6108536000610a29565b565b813410156108b35760405162461bcd60e51b815260206004820152602560248201527f526577617264206e6f7420676976656e20656e6f7567682061732073706563696044820152643334b2b21760d91b6064820152608401610388565b60405180606001604052806108c53390565b6001600160a01b031681526020018381526020018281525060066001548154811061090057634e487b7160e01b600052603260045260246000fd5b6000918252602080832084516003939093020180546001600160a01b0319166001600160a01b039093169290921782558301516001808301919091556040909301516002909101558154919061095583610b40565b91905055505050565b6000546001600160a01b031633146109b85760405162461bcd60e51b815260206004820181905260248201527f4f776e61626c653a2063616c6c6572206973206e6f7420746865206f776e65726044820152606401610388565b6001600160a01b038116610a1d5760405162461bcd60e51b815260206004820152602660248201527f4f776e61626c653a206e6577206f776e657220697320746865207a65726f206160448201526564647265737360d01b6064820152608401610388565b610a2681610a29565b50565b600080546001600160a01b038381166001600160a01b0319831681178455604051919092169283917f8be0079c531659141344cd1fd0a4f28419497f9722a3daafe3b4186f6b6457e09190a35050565b600060208284031215610a8a578081fd5b81356001600160a01b0381168114610aa0578182fd5b9392505050565b600060208284031215610ab8578081fd5b5035919050565b60008060408385031215610ad1578081fd5b50508035926020909101359150565b60008060408385031215610ad1578182fd5b600082610b0d57634e487b7160e01b81526012600452602481fd5b500490565b600082821015610b2457610b24610b5b565b500390565b600081610b3857610b38610b5b565b506000190190565b6000600019821415610b5457610b54610b5b565b5060010190565b634e487b7160e01b600052601160045260246000fdfea2646970667358221220e9c2983f3ad6cfdc571bacb85fe96c6ed272795fb5bfbdaa92e7457fbf5e26f964736f6c63430008040033a2646970667358221220f79d665454d2a611f9c0906c78973a9089ca724d2926e15f110a1d601ed58e3464736f6c63430008040033",
  "linkReferences": {},
  "deployedLinkReferences": {}
}