{
  "_format": "hh-sol-artifact-1",
  "contractName": "QnABoard",
  "sourceName": "contracts/QnABoard.sol",
  "abi": [
    {
      "inputs": [
        {
          "internalType": "address",
          "name": "_courseContract",
          "type": "address"
        }
      ],
      "stateMutability": "nonpayable",
      "type": "constructor"
    },
    {
      "anonymous": false,
      "inputs": [
        {
          "indexed": true,
          "internalType": "address",
          "name": "previousOwner",
          "type": "address"
        },
        {
          "indexed": true,
          "internalType": "address",
          "name": "newOwner",
          "type": "address"
        }
      ],
      "name": "OwnershipTransferred",
      "type": "event"
    },
    {
      "inputs": [
        {
          "internalType": "uint256",
          "name": "_questionID",
          "type": "uint256"
        },
        {
          "internalType": "uint256",
          "name": "_answerID",
          "type": "uint256"
        }
      ],
      "name": "acceptAnswer",
      "outputs": [],
      "stateMutability": "nonpayable",
      "type": "function"
    },
    {
      "inputs": [
        {
          "internalType": "uint256",
          "name": "_questionID",
          "type": "uint256"
        },
        {
          "internalType": "bytes32",
          "name": "_hash",
          "type": "bytes32"
        }
      ],
      "name": "answerQuestion",
      "outputs": [],
      "stateMutability": "nonpayable",
      "type": "function"
    },
    {
      "inputs": [
        {
          "internalType": "uint256",
          "name": "",
          "type": "uint256"
        }
      ],
      "name": "correctAnswerers",
      "outputs": [
        {
          "internalType": "address",
          "name": "",
          "type": "address"
        }
      ],
      "stateMutability": "view",
      "type": "function"
    },
    {
      "inputs": [
        {
          "internalType": "uint256",
          "name": "",
          "type": "uint256"
        }
      ],
      "name": "correctAnswers",
      "outputs": [
        {
          "internalType": "address",
          "name": "initiator",
          "type": "address"
        },
        {
          "internalType": "bytes32",
          "name": "content",
          "type": "bytes32"
        }
      ],
      "stateMutability": "view",
      "type": "function"
    },
    {
      "inputs": [],
      "name": "courseContractAddr",
      "outputs": [
        {
          "internalType": "address",
          "name": "",
          "type": "address"
        }
      ],
      "stateMutability": "view",
      "type": "function"
    },
    {
      "inputs": [],
      "name": "nextQuestionID",
      "outputs": [
        {
          "internalType": "uint256",
          "name": "",
          "type": "uint256"
        }
      ],
      "stateMutability": "view",
      "type": "function"
    },
    {
      "inputs": [],
      "name": "owner",
      "outputs": [
        {
          "internalType": "address",
          "name": "",
          "type": "address"
        }
      ],
      "stateMutability": "view",
      "type": "function"
    },
    {
      "inputs": [
        {
          "internalType": "uint256",
          "name": "",
          "type": "uint256"
        },
        {
          "internalType": "uint256",
          "name": "",
          "type": "uint256"
        }
      ],
      "name": "pendingAns",
      "outputs": [
        {
          "internalType": "address",
          "name": "initiator",
          "type": "address"
        },
        {
          "internalType": "bytes32",
          "name": "content",
          "type": "bytes32"
        }
      ],
      "stateMutability": "view",
      "type": "function"
    },
    {
      "inputs": [
        {
          "internalType": "uint256",
          "name": "_reward",
          "type": "uint256"
        },
        {
          "internalType": "bytes32",
          "name": "_hash",
          "type": "bytes32"
        }
      ],
      "name": "postQuestion",
      "outputs": [],
      "stateMutability": "payable",
      "type": "function"
    },
    {
      "inputs": [
        {
          "internalType": "uint256",
          "name": "",
          "type": "uint256"
        }
      ],
      "name": "questions",
      "outputs": [
        {
          "internalType": "address",
          "name": "initiator",
          "type": "address"
        },
        {
          "internalType": "uint256",
          "name": "reward",
          "type": "uint256"
        },
        {
          "internalType": "bytes32",
          "name": "content",
          "type": "bytes32"
        }
      ],
      "stateMutability": "view",
      "type": "function"
    },
    {
      "inputs": [],
      "name": "renounceOwnership",
      "outputs": [],
      "stateMutability": "nonpayable",
      "type": "function"
    },
    {
      "inputs": [
        {
          "internalType": "address",
          "name": "newOwner",
          "type": "address"
        }
      ],
      "name": "transferOwnership",
      "outputs": [],
      "stateMutability": "nonpayable",
      "type": "function"
    },
    {
      "stateMutability": "payable",
      "type": "receive"
    }
  ],
  "bytecode": "0x608060405234801561001057600080fd5b50604051610c91380380610c9183398101604081905261002f916100ad565b6100383361005d565b600280546001600160a01b0319166001600160a01b03929092169190911790556100db565b600080546001600160a01b038381166001600160a01b0319831681178455604051919092169283917f8be0079c531659141344cd1fd0a4f28419497f9722a3daafe3b4186f6b6457e09190a35050565b6000602082840312156100be578081fd5b81516001600160a01b03811681146100d4578182fd5b9392505050565b610ba7806100ea6000396000f3fe6080604052600436106100ab5760003560e01c8063715018a611610064578063715018a61461027257806376c7d020146102875780638da5cb5b146102ab578063cf2b277d146102c9578063de0490ef14610309578063f2fde38b1461031c57600080fd5b806331b1b9781461014f578063351e1bd0146101995780633e90aa30146101bb578063442a9591146101fa5780635109a5f5146102325780636357b28e1461025257600080fd5b3661014a5760035447906000600a82116100c557816100c8565b600a5b905060006100d7600184610b12565b90505b6100e48284610b12565b8110610144576101326003828154811061010e57634e487b7160e01b600052603260045260246000fd5b6000918252602090912001546001600160a01b031661012d8487610af2565b61033c565b8061013c81610b29565b9150506100da565b50505050005b600080fd5b34801561015b57600080fd5b5061016f61016a366004610aa7565b61045f565b604080516001600160a01b0390941684526020840192909252908201526060015b60405180910390f35b3480156101a557600080fd5b506101b96101b4366004610ae0565b61049c565b005b3480156101c757600080fd5b506101db6101d6366004610ae0565b610672565b604080516001600160a01b039093168352602083019190915201610190565b34801561020657600080fd5b5061021a610215366004610aa7565b6106b8565b6040516001600160a01b039091168152602001610190565b34801561023e57600080fd5b506101b961024d366004610abf565b6106e2565b34801561025e57600080fd5b5060025461021a906001600160a01b031681565b34801561027e57600080fd5b506101b96107ef565b34801561029357600080fd5b5061029d60015481565b604051908152602001610190565b3480156102b757600080fd5b506000546001600160a01b031661021a565b3480156102d557600080fd5b506101db6102e4366004610aa7565b600560205260009081526040902080546001909101546001600160a01b039091169082565b6101b9610317366004610abf565b610855565b34801561032857600080fd5b506101b9610337366004610a79565b61095e565b804710156103915760405162461bcd60e51b815260206004820152601d60248201527f416464726573733a20696e73756666696369656e742062616c616e636500000060448201526064015b60405180910390fd5b6000826001600160a01b03168260405160006040518083038185875af1925050503d80600081146103de576040519150601f19603f3d011682016040523d82523d6000602084013e6103e3565b606091505b505090508061045a5760405162461bcd60e51b815260206004820152603a60248201527f416464726573733a20756e61626c6520746f2073656e642076616c75652c207260448201527f6563697069656e74206d617920686176652072657665727465640000000000006064820152608401610388565b505050565b6006818154811061046f57600080fd5b60009182526020909120600390910201805460018201546002909201546001600160a01b03909116925083565b600682815481106104bd57634e487b7160e01b600052603260045260246000fd5b60009182526020909120600390910201546001600160a01b0316336001600160a01b03161461055e5760405162461bcd60e51b815260206004820152604160248201527f416e737765722063616e206f6e6c79206265206163636570746564206173206360448201527f6f727265637420627920746865207175657374696f6e20696e69746961746f726064820152601760f91b608482015260a401610388565b600082815260046020526040902080548290811061058c57634e487b7160e01b600052603260045260246000fd5b60009182526020808320858452600590915260409092206002909102909101805482546001600160a01b0319166001600160a01b039091169081178355600191820154919092015560068054610613929190859081106105fc57634e487b7160e01b600052603260045260246000fd5b90600052602060002090600302016001015461033c565b506000908152600560205260408120546003805460018101825592527fc2575a0e9e593c00f959f8c92f12db2869c3395a3b0502d05e2516446f71f85b90910180546001600160a01b0319166001600160a01b03909216919091179055565b6004602052816000526040600020818154811061068e57600080fd5b6000918252602090912060029091020180546001909101546001600160a01b039091169250905082565b600381815481106106c857600080fd5b6000918252602090912001546001600160a01b0316905081565b6006828154811061070357634e487b7160e01b600052603260045260246000fd5b60009182526020909120600390910201546001600160a01b0316336001600160a01b031614156107915760405162461bcd60e51b815260206004820152603360248201527f416e7377657265722063616e6e6f74206265207468652073616d65206173207460448201527234329038bab2b9ba34b7b7103837b9ba32b91760691b6064820152608401610388565b6000918252600460209081526040808420815180830190925233825281830193845280546001808201835591865292909420905160029092020180546001600160a01b0319166001600160a01b039092169190911781559051910155565b6000546001600160a01b031633146108495760405162461bcd60e51b815260206004820181905260248201527f4f776e61626c653a2063616c6c6572206973206e6f7420746865206f776e65726044820152606401610388565b6108536000610a29565b565b813410156108b35760405162461bcd60e51b815260206004820152602560248201527f526577617264206e6f7420676976656e20656e6f7567682061732073706563696044820152643334b2b21760d91b6064820152608401610388565b60405180606001604052806108c53390565b6001600160a01b031681526020018381526020018281525060066001548154811061090057634e487b7160e01b600052603260045260246000fd5b6000918252602080832084516003939093020180546001600160a01b0319166001600160a01b039093169290921782558301516001808301919091556040909301516002909101558154919061095583610b40565b91905055505050565b6000546001600160a01b031633146109b85760405162461bcd60e51b815260206004820181905260248201527f4f776e61626c653a2063616c6c6572206973206e6f7420746865206f776e65726044820152606401610388565b6001600160a01b038116610a1d5760405162461bcd60e51b815260206004820152602660248201527f4f776e61626c653a206e6577206f776e657220697320746865207a65726f206160448201526564647265737360d01b6064820152608401610388565b610a2681610a29565b50565b600080546001600160a01b038381166001600160a01b0319831681178455604051919092169283917f8be0079c531659141344cd1fd0a4f28419497f9722a3daafe3b4186f6b6457e09190a35050565b600060208284031215610a8a578081fd5b81356001600160a01b0381168114610aa0578182fd5b9392505050565b600060208284031215610ab8578081fd5b5035919050565b60008060408385031215610ad1578081fd5b50508035926020909101359150565b60008060408385031215610ad1578182fd5b600082610b0d57634e487b7160e01b81526012600452602481fd5b500490565b600082821015610b2457610b24610b5b565b500390565b600081610b3857610b38610b5b565b506000190190565b6000600019821415610b5457610b54610b5b565b5060010190565b634e487b7160e01b600052601160045260246000fdfea2646970667358221220e9c2983f3ad6cfdc571bacb85fe96c6ed272795fb5bfbdaa92e7457fbf5e26f964736f6c63430008040033",
  "linkReferences": {},
  "deployedLinkReferences": {}
}